{
  "contractName": "SupportsInterface",
  "abi": [
    {
      "inputs": [],
      "stateMutability": "nonpayable",
      "type": "constructor"
    },
    {
      "inputs": [
        {
          "internalType": "bytes4",
          "name": "_interfaceID",
          "type": "bytes4"
        }
      ],
      "name": "supportsInterface",
      "outputs": [
        {
          "internalType": "bool",
          "name": "",
          "type": "bool"
        }
      ],
      "stateMutability": "view",
      "type": "function"
    }
  ],
  "bytecode": "0x608060405234801561001057600080fd5b5060016000806301ffc9a760e01b7bffffffffffffffffffffffffffffffffffffffffffffffffffffffff1916815260200190815260200160002060006101000a81548160ff02191690831515021790555061012c806100716000396000f3fe6080604052348015600f57600080fd5b506004361060285760003560e01c806301ffc9a714602d575b600080fd5b607560048036036020811015604157600080fd5b8101908080357bffffffffffffffffffffffffffffffffffffffffffffffffffffffff19169060200190929190505050608f565b604051808215151515815260200191505060405180910390f35b6000806000837bffffffffffffffffffffffffffffffffffffffffffffffffffffffff19167bffffffffffffffffffffffffffffffffffffffffffffffffffffffff1916815260200190815260200160002060009054906101000a900460ff16905091905056fea2646970667358221220150019c3c6e0bca896944bef4b2c2e7450cd8a5600aa509406aaf3a26388543b64736f6c63430006060033",
  "immutableReferences": {},
  "source": "pragma solidity ^0.6.6;\n\nimport \"@openzeppelin/contracts/introspection/IERC165.sol\";\n\n\n// SPDX-License-Identifier: UNLICENSED\n/**\n * @dev Implementation of standard for detect smart contract interfaces.\n */\ncontract SupportsInterface is IERC165 {\n    /**\n     * @dev Mapping of supported intefraces.\n     * @notice You must not set element 0xffffffff to true.\n     */\n    mapping(bytes4 => bool) internal supportedInterfaces;\n\n    /**\n     * @dev Contract constructor.\n     */\n    constructor() public {\n        supportedInterfaces[0x01ffc9a7] = true; // ERC165\n    }\n\n    /**\n     * @dev Function to check which interfaces are suported by this contract.\n     * @param _interfaceID Id of the interface.\n     * @return True if _interfaceID is supported, false otherwise.\n     */\n    function supportsInterface(bytes4 _interfaceID)\n        external\n        override\n        view\n        returns (bool)\n    {\n        return supportedInterfaces[_interfaceID];\n    }\n}\n",
  "sourcePath": "/Users/rahulprabhu/Documents/GitHub/maticDeploy/contracts/supports-interface.sol",
  "compiler": {
    "name": "solc",
    "version": "0.6.6+commit.6c089d02.Emscripten.clang"
  },
  "schemaVersion": "3.2.1",
  "updatedAt": "2020-07-06T08:02:07.709Z",
  "devdoc": {
    "details": "Implementation of standard for detect smart contract interfaces.",
    "methods": {
      "constructor": {
        "details": "Contract constructor."
      },
      "supportsInterface(bytes4)": {
        "details": "Function to check which interfaces are suported by this contract.",
        "params": {
          "_interfaceID": "Id of the interface."
        },
        "returns": {
          "_0": "True if _interfaceID is supported, false otherwise."
        }
      }
    }
  },
  "userdoc": {
    "methods": {}
  }
}