{
  "contractName": "TokenFactory",
  "abi": [
    {
      "inputs": [],
      "stateMutability": "nonpayable",
      "type": "constructor"
    },
    {
      "anonymous": false,
      "inputs": [
        {
          "indexed": false,
          "internalType": "uint256",
          "name": "idStart",
          "type": "uint256"
        },
        {
          "indexed": false,
          "internalType": "uint256",
          "name": "idEnd",
          "type": "uint256"
        },
        {
          "indexed": false,
          "internalType": "string",
          "name": "company",
          "type": "string"
        },
        {
          "indexed": false,
          "internalType": "string",
          "name": "purpose",
          "type": "string"
        }
      ],
      "name": "MintToken",
      "type": "event"
    },
    {
      "anonymous": false,
      "inputs": [
        {
          "indexed": true,
          "internalType": "bytes32",
          "name": "role",
          "type": "bytes32"
        },
        {
          "indexed": true,
          "internalType": "bytes32",
          "name": "previousAdminRole",
          "type": "bytes32"
        },
        {
          "indexed": true,
          "internalType": "bytes32",
          "name": "newAdminRole",
          "type": "bytes32"
        }
      ],
      "name": "RoleAdminChanged",
      "type": "event"
    },
    {
      "anonymous": false,
      "inputs": [
        {
          "indexed": true,
          "internalType": "bytes32",
          "name": "role",
          "type": "bytes32"
        },
        {
          "indexed": true,
          "internalType": "address",
          "name": "account",
          "type": "address"
        },
        {
          "indexed": true,
          "internalType": "address",
          "name": "sender",
          "type": "address"
        }
      ],
      "name": "RoleGranted",
      "type": "event"
    },
    {
      "anonymous": false,
      "inputs": [
        {
          "indexed": true,
          "internalType": "bytes32",
          "name": "role",
          "type": "bytes32"
        },
        {
          "indexed": true,
          "internalType": "address",
          "name": "account",
          "type": "address"
        },
        {
          "indexed": true,
          "internalType": "address",
          "name": "sender",
          "type": "address"
        }
      ],
      "name": "RoleRevoked",
      "type": "event"
    },
    {
      "inputs": [],
      "name": "DEFAULT_ADMIN_ROLE",
      "outputs": [
        {
          "internalType": "bytes32",
          "name": "",
          "type": "bytes32"
        }
      ],
      "stateMutability": "view",
      "type": "function"
    },
    {
      "inputs": [],
      "name": "MINTERS",
      "outputs": [
        {
          "internalType": "bytes32",
          "name": "",
          "type": "bytes32"
        }
      ],
      "stateMutability": "view",
      "type": "function"
    },
    {
      "inputs": [
        {
          "internalType": "bytes32",
          "name": "role",
          "type": "bytes32"
        }
      ],
      "name": "getRoleAdmin",
      "outputs": [
        {
          "internalType": "bytes32",
          "name": "",
          "type": "bytes32"
        }
      ],
      "stateMutability": "view",
      "type": "function"
    },
    {
      "inputs": [
        {
          "internalType": "bytes32",
          "name": "role",
          "type": "bytes32"
        },
        {
          "internalType": "uint256",
          "name": "index",
          "type": "uint256"
        }
      ],
      "name": "getRoleMember",
      "outputs": [
        {
          "internalType": "address",
          "name": "",
          "type": "address"
        }
      ],
      "stateMutability": "view",
      "type": "function"
    },
    {
      "inputs": [
        {
          "internalType": "bytes32",
          "name": "role",
          "type": "bytes32"
        }
      ],
      "name": "getRoleMemberCount",
      "outputs": [
        {
          "internalType": "uint256",
          "name": "",
          "type": "uint256"
        }
      ],
      "stateMutability": "view",
      "type": "function"
    },
    {
      "inputs": [
        {
          "internalType": "bytes32",
          "name": "role",
          "type": "bytes32"
        },
        {
          "internalType": "address",
          "name": "account",
          "type": "address"
        }
      ],
      "name": "grantRole",
      "outputs": [],
      "stateMutability": "nonpayable",
      "type": "function"
    },
    {
      "inputs": [
        {
          "internalType": "bytes32",
          "name": "role",
          "type": "bytes32"
        },
        {
          "internalType": "address",
          "name": "account",
          "type": "address"
        }
      ],
      "name": "hasRole",
      "outputs": [
        {
          "internalType": "bool",
          "name": "",
          "type": "bool"
        }
      ],
      "stateMutability": "view",
      "type": "function"
    },
    {
      "inputs": [
        {
          "internalType": "bytes32",
          "name": "role",
          "type": "bytes32"
        },
        {
          "internalType": "address",
          "name": "account",
          "type": "address"
        }
      ],
      "name": "renounceRole",
      "outputs": [],
      "stateMutability": "nonpayable",
      "type": "function"
    },
    {
      "inputs": [
        {
          "internalType": "bytes32",
          "name": "role",
          "type": "bytes32"
        },
        {
          "internalType": "address",
          "name": "account",
          "type": "address"
        }
      ],
      "name": "revokeRole",
      "outputs": [],
      "stateMutability": "nonpayable",
      "type": "function"
    },
    {
      "inputs": [
        {
          "internalType": "uint256",
          "name": "",
          "type": "uint256"
        }
      ],
      "name": "tokenArray",
      "outputs": [
        {
          "internalType": "string",
          "name": "company",
          "type": "string"
        },
        {
          "internalType": "string",
          "name": "purpose",
          "type": "string"
        }
      ],
      "stateMutability": "view",
      "type": "function"
    },
    {
      "inputs": [
        {
          "internalType": "address",
          "name": "_minter",
          "type": "address"
        },
        {
          "internalType": "bool",
          "name": "status",
          "type": "bool"
        }
      ],
      "name": "setMinterAuthorization",
      "outputs": [],
      "stateMutability": "nonpayable",
      "type": "function"
    },
    {
      "inputs": [
        {
          "internalType": "address",
          "name": "_minter",
          "type": "address"
        }
      ],
      "name": "getMinterAuthorization",
      "outputs": [
        {
          "internalType": "bool",
          "name": "",
          "type": "bool"
        }
      ],
      "stateMutability": "view",
      "type": "function"
    },
    {
      "inputs": [
        {
          "internalType": "address",
          "name": "_owner",
          "type": "address"
        }
      ],
      "name": "getTokenByOwner",
      "outputs": [
        {
          "internalType": "uint256[]",
          "name": "",
          "type": "uint256[]"
        }
      ],
      "stateMutability": "view",
      "type": "function"
    },
    {
      "inputs": [
        {
          "internalType": "string",
          "name": "_company",
          "type": "string"
        },
        {
          "internalType": "string",
          "name": "_purpose",
          "type": "string"
        },
        {
          "internalType": "uint256",
          "name": "tokens",
          "type": "uint256"
        }
      ],
      "name": "newToken",
      "outputs": [],
      "stateMutability": "nonpayable",
      "type": "function"
    },
    {
      "inputs": [
        {
          "internalType": "string",
          "name": "_company",
          "type": "string"
        },
        {
          "internalType": "uint256",
          "name": "_tokenId",
          "type": "uint256"
        }
      ],
      "name": "setCompany",
      "outputs": [],
      "stateMutability": "nonpayable",
      "type": "function"
    },
    {
      "inputs": [
        {
          "internalType": "string",
          "name": "_purpose",
          "type": "string"
        },
        {
          "internalType": "uint256",
          "name": "_tokenId",
          "type": "uint256"
        }
      ],
      "name": "setPurpose",
      "outputs": [],
      "stateMutability": "nonpayable",
      "type": "function"
    }
  ],
  "bytecode": "0x60806040523480156200001157600080fd5b50620000276000801b336200002d60201b60201c565b620001c3565b6200003f82826200004360201b60201c565b5050565b6200007181600080858152602001908152602001600020600001620000e660201b620015321790919060201c565b15620000e257620000876200011e60201b60201c565b73ffffffffffffffffffffffffffffffffffffffff168173ffffffffffffffffffffffffffffffffffffffff16837f2f8788117e7eff1d82e926ec794901d17c78024a50270940304540a733656f0d60405160405180910390a45b5050565b600062000116836000018373ffffffffffffffffffffffffffffffffffffffff1660001b6200012660201b60201c565b905092915050565b600033905090565b60006200013a8383620001a060201b60201c565b620001955782600001829080600181540180825580915050600190039060005260206000200160009091909190915055826000018054905083600101600084815260200190815260200160002081905550600190506200019a565b600090505b92915050565b600080836001016000848152602001908152602001600020541415905092915050565b6119ac80620001d36000396000f3fe608060405234801561001057600080fd5b50600436106101005760003560e01c80639010d07c11610097578063ca15c87311610066578063ca15c8731461059d578063d547741f146105df578063f5ca27711461062d578063faa32f5d146106b057610100565b80639010d07c146103c957806391d1485414610441578063a217fddf146104a7578063acbc272b146104c557610100565b8063378c2b86116100d3578063378c2b861461027c5780635d1a42a1146102cc578063693a987b146102ea57806379022f4f1461034657610100565b8063248a9ca3146101055780632bf79c94146101475780632f2ff15d146101e057806336568abe1461022e575b600080fd5b6101316004803603602081101561011b57600080fd5b81019080803590602001909291905050506107c3565b6040518082815260200191505060405180910390f35b6101896004803603602081101561015d57600080fd5b81019080803573ffffffffffffffffffffffffffffffffffffffff1690602001909291905050506107e2565b6040518080602001828103825283818151815260200191508051906020019060200280838360005b838110156101cc5780820151818401526020810190506101b1565b505050509050019250505060405180910390f35b61022c600480360360408110156101f657600080fd5b8101908080359060200190929190803573ffffffffffffffffffffffffffffffffffffffff169060200190929190505050610926565b005b61027a6004803603604081101561024457600080fd5b8101908080359060200190929190803573ffffffffffffffffffffffffffffffffffffffff1690602001909291905050506109af565b005b6102ca6004803603604081101561029257600080fd5b81019080803573ffffffffffffffffffffffffffffffffffffffff169060200190929190803515159060200190929190505050610a48565b005b6102d4610b5c565b6040518082815260200191505060405180910390f35b61032c6004803603602081101561030057600080fd5b81019080803573ffffffffffffffffffffffffffffffffffffffff169060200190929190505050610b95565b604051808215151515815260200191505060405180910390f35b6103c76004803603604081101561035c57600080fd5b810190808035906020019064010000000081111561037957600080fd5b82018360208201111561038b57600080fd5b803590602001918460018302840111640100000000831117156103ad57600080fd5b909192939192939080359060200190929190505050610bdd565b005b6103ff600480360360408110156103df57600080fd5b810190808035906020019092919080359060200190929190505050610ce6565b604051808273ffffffffffffffffffffffffffffffffffffffff1673ffffffffffffffffffffffffffffffffffffffff16815260200191505060405180910390f35b61048d6004803603604081101561045757600080fd5b8101908080359060200190929190803573ffffffffffffffffffffffffffffffffffffffff169060200190929190505050610d17565b604051808215151515815260200191505060405180910390f35b6104af610d48565b6040518082815260200191505060405180910390f35b61059b600480360360608110156104db57600080fd5b81019080803590602001906401000000008111156104f857600080fd5b82018360208201111561050a57600080fd5b8035906020019184600183028401116401000000008311171561052c57600080fd5b90919293919293908035906020019064010000000081111561054d57600080fd5b82018360208201111561055f57600080fd5b8035906020019184600183028401116401000000008311171561058157600080fd5b909192939192939080359060200190929190505050610d4f565b005b6105c9600480360360208110156105b357600080fd5b810190808035906020019092919050505061108c565b6040518082815260200191505060405180910390f35b61062b600480360360408110156105f557600080fd5b8101908080359060200190929190803573ffffffffffffffffffffffffffffffffffffffff1690602001909291905050506110b2565b005b6106ae6004803603604081101561064357600080fd5b810190808035906020019064010000000081111561066057600080fd5b82018360208201111561067257600080fd5b8035906020019184600183028401116401000000008311171561069457600080fd5b90919293919293908035906020019092919050505061113b565b005b6106dc600480360360208110156106c657600080fd5b8101908080359060200190929190505050611244565b604051808060200180602001838103835285818151815260200191508051906020019080838360005b83811015610720578082015181840152602081019050610705565b50505050905090810190601f16801561074d5780820380516001836020036101000a031916815260200191505b50838103825284818151815260200191508051906020019080838360005b8381101561078657808201518184015260208101905061076b565b50505050905090810190601f1680156107b35780820380516001836020036101000a031916815260200191505b5094505050505060405180910390f35b6000806000838152602001908152602001600020600201549050919050565b606080600360008473ffffffffffffffffffffffffffffffffffffffff1673ffffffffffffffffffffffffffffffffffffffff1681526020019081526020016000205467ffffffffffffffff8111801561083b57600080fd5b5060405190808252806020026020018201604052801561086a5781602001602082028036833780820191505090505b509050600080905060008090505b60018054905081101561091b578473ffffffffffffffffffffffffffffffffffffffff166002600083815260200190815260200160002060009054906101000a900473ffffffffffffffffffffffffffffffffffffffff1673ffffffffffffffffffffffffffffffffffffffff16141561090e57808383815181106108f957fe5b60200260200101818152505081806001019250505b8080600101915050610878565b508192505050919050565b61094c600080848152602001908152602001600020600201546109476113a5565b610d17565b6109a1576040517f08c379a000000000000000000000000000000000000000000000000000000000815260040180806020018281038252602f8152602001806118e9602f913960400191505060405180910390fd5b6109ab82826113ad565b5050565b6109b76113a5565b73ffffffffffffffffffffffffffffffffffffffff168173ffffffffffffffffffffffffffffffffffffffff1614610a3a576040517f08c379a000000000000000000000000000000000000000000000000000000000815260040180806020018281038252602f815260200180611948602f913960400191505060405180910390fd5b610a448282611440565b5050565b610a556000801b33610d17565b610ac7576040517f08c379a000000000000000000000000000000000000000000000000000000000815260040180806020018281038252600d8152602001807f4e6f7420546865204f776e65720000000000000000000000000000000000000081525060200191505060405180910390fd5b600115158115151415610b1857610b1360405180807f4d494e54455253000000000000000000000000000000000000000000000000008152506007019050604051809103902083610926565b610b58565b610b5760405180807f4d494e544552530000000000000000000000000000000000000000000000000081525060070190506040518091039020836110b2565b5b5050565b60405180807f4d494e54455253000000000000000000000000000000000000000000000000008152506007019050604051809103902081565b6000610bd660405180807f4d494e54455253000000000000000000000000000000000000000000000000008152506007019050604051809103902083610d17565b9050919050565b803373ffffffffffffffffffffffffffffffffffffffff166002600083815260200190815260200160002060009054906101000a900473ffffffffffffffffffffffffffffffffffffffff1673ffffffffffffffffffffffffffffffffffffffff1614610cb2576040517f08c379a00000000000000000000000000000000000000000000000000000000081526004018080602001828103825260178152602001807f596f7520646f6e2774206f776e2074686520746f6b656e00000000000000000081525060200191505060405180910390fd5b838360018481548110610cc157fe5b90600052602060002090600202016001019190610cdf9291906117a1565b5050505050565b6000610d0f826000808681526020019081526020016000206000016114d390919063ffffffff16565b905092915050565b6000610d40826000808681526020019081526020016000206000016114ed90919063ffffffff16565b905092915050565b6000801b81565b610d8e60405180807f4d494e54455253000000000000000000000000000000000000000000000000008152506007019050604051809103902033610d17565b610e00576040517f08c379a000000000000000000000000000000000000000000000000000000000815260040180806020018281038252600e8152602001807f4e6f7420546865204d696e74657200000000000000000000000000000000000081525060200191505060405180910390fd5b6000600180549050905060008090505b82811015610fd7576001604051806040016040528089898080601f016020809104026020016040519081016040528093929190818152602001838380828437600081840152601f19601f82011690508083019250505050505050815260200187878080601f016020809104026020016040519081016040528093929190818152602001838380828437600081840152601f19601f8201169050808301925050505050505081525090806001815401808255809150506001900390600052602060002090600202016000909190919091506000820151816000019080519060200190610efc929190611821565b506020820151816001019080519060200190610f19929190611821565b505050600060018080549050039050336002600083815260200190815260200160002060006101000a81548173ffffffffffffffffffffffffffffffffffffffff021916908373ffffffffffffffffffffffffffffffffffffffff160217905550600360003373ffffffffffffffffffffffffffffffffffffffff1673ffffffffffffffffffffffffffffffffffffffff16815260200190815260200160002060008154809291906001019190505550508080600101915050610e10565b507f5666c87a41454e521c57048036155984d19965b019ae43bc54bf33ba264822e881600184840103888888886040518087815260200186815260200180602001806020018381038352878782818152602001925080828437600081840152601f19601f8201169050808301925050508381038252858582818152602001925080828437600081840152601f19601f8201169050808301925050509850505050505050505060405180910390a1505050505050565b60006110ab60008084815260200190815260200160002060000161151d565b9050919050565b6110d8600080848152602001908152602001600020600201546110d36113a5565b610d17565b61112d576040517f08c379a00000000000000000000000000000000000000000000000000000000081526004018080602001828103825260308152602001806119186030913960400191505060405180910390fd5b6111378282611440565b5050565b803373ffffffffffffffffffffffffffffffffffffffff166002600083815260200190815260200160002060009054906101000a900473ffffffffffffffffffffffffffffffffffffffff1673ffffffffffffffffffffffffffffffffffffffff1614611210576040517f08c379a00000000000000000000000000000000000000000000000000000000081526004018080602001828103825260178152602001807f596f7520646f6e2774206f776e2074686520746f6b656e00000000000000000081525060200191505060405180910390fd5b83836001848154811061121f57fe5b9060005260206000209060020201600001919061123d9291906117a1565b5050505050565b6001818154811061125157fe5b9060005260206000209060020201600091509050806000018054600181600116156101000203166002900480601f0160208091040260200160405190810160405280929190818152602001828054600181600116156101000203166002900480156112fd5780601f106112d2576101008083540402835291602001916112fd565b820191906000526020600020905b8154815290600101906020018083116112e057829003601f168201915b505050505090806001018054600181600116156101000203166002900480601f01602080910402602001604051908101604052809291908181526020018280546001816001161561010002031660029004801561139b5780601f106113705761010080835404028352916020019161139b565b820191906000526020600020905b81548152906001019060200180831161137e57829003601f168201915b5050505050905082565b600033905090565b6113d48160008085815260200190815260200160002060000161153290919063ffffffff16565b1561143c576113e16113a5565b73ffffffffffffffffffffffffffffffffffffffff168173ffffffffffffffffffffffffffffffffffffffff16837f2f8788117e7eff1d82e926ec794901d17c78024a50270940304540a733656f0d60405160405180910390a45b5050565b6114678160008085815260200190815260200160002060000161156290919063ffffffff16565b156114cf576114746113a5565b73ffffffffffffffffffffffffffffffffffffffff168173ffffffffffffffffffffffffffffffffffffffff16837ff6391f5c32d9c69d2a47ea670b442974b53935d1edc7fd64eb21e047a839171b60405160405180910390a45b5050565b60006114e28360000183611592565b60001c905092915050565b6000611515836000018373ffffffffffffffffffffffffffffffffffffffff1660001b611615565b905092915050565b600061152b82600001611638565b9050919050565b600061155a836000018373ffffffffffffffffffffffffffffffffffffffff1660001b611649565b905092915050565b600061158a836000018373ffffffffffffffffffffffffffffffffffffffff1660001b6116b9565b905092915050565b6000818360000180549050116115f3576040517f08c379a00000000000000000000000000000000000000000000000000000000081526004018080602001828103825260228152602001806118c76022913960400191505060405180910390fd5b82600001828154811061160257fe5b9060005260206000200154905092915050565b600080836001016000848152602001908152602001600020541415905092915050565b600081600001805490509050919050565b60006116558383611615565b6116ae5782600001829080600181540180825580915050600190039060005260206000200160009091909190915055826000018054905083600101600084815260200190815260200160002081905550600190506116b3565b600090505b92915050565b60008083600101600084815260200190815260200160002054905060008114611795576000600182039050600060018660000180549050039050600086600001828154811061170457fe5b906000526020600020015490508087600001848154811061172157fe5b906000526020600020018190555060018301876001016000838152602001908152602001600020819055508660000180548061175957fe5b6001900381819060005260206000200160009055905586600101600087815260200190815260200160002060009055600194505050505061179b565b60009150505b92915050565b828054600181600116156101000203166002900490600052602060002090601f016020900481019282601f106117e257803560ff1916838001178555611810565b82800160010185558215611810579182015b8281111561180f5782358255916020019190600101906117f4565b5b50905061181d91906118a1565b5090565b828054600181600116156101000203166002900490600052602060002090601f016020900481019282601f1061186257805160ff1916838001178555611890565b82800160010185558215611890579182015b8281111561188f578251825591602001919060010190611874565b5b50905061189d91906118a1565b5090565b6118c391905b808211156118bf5760008160009055506001016118a7565b5090565b9056fe456e756d657261626c655365743a20696e646578206f7574206f6620626f756e6473416363657373436f6e74726f6c3a2073656e646572206d75737420626520616e2061646d696e20746f206772616e74416363657373436f6e74726f6c3a2073656e646572206d75737420626520616e2061646d696e20746f207265766f6b65416363657373436f6e74726f6c3a2063616e206f6e6c792072656e6f756e636520726f6c657320666f722073656c66a2646970667358221220f85c151fedb7fc2b349391d3fef031bae47a31f4a3408f7b792df666487b7e8364736f6c63430006060033",
  "immutableReferences": {},
  "source": "pragma solidity ^0.6.6;\n\nimport '@openzeppelin/contracts/access/AccessControl.sol';\n\n\n// SPDX-License-Identifier: UNLICENSED\n// Root token contract\n// Contains: Individual Token Methods\ncontract TokenFactory is AccessControl {\n    struct Token {\n        string company;\n        string purpose;\n    }\n\n    Token[] public tokenArray;\n\n    mapping(uint256 => address) internal tokenToOwner;\n    mapping(address => uint256) internal ownerTokenCount;\n\n    bytes32 public constant MINTERS = keccak256('MINTERS');\n\n    event MintToken(uint256 idStart, uint256 idEnd, string company, string purpose);\n\n    modifier onlyMinters() {\n        require(hasRole(MINTERS, msg.sender), 'Not The Minter');\n        _;\n    }\n\n    modifier onlyOwners() {\n        require(hasRole(DEFAULT_ADMIN_ROLE, msg.sender), 'Not The Owner');\n        _;\n    }\n\n    modifier ownsToken(uint256 _tokenId) {\n        require(tokenToOwner[_tokenId] == msg.sender, \"You don't own the token\");\n        _;\n    }\n\n    constructor() public {\n        _setupRole(DEFAULT_ADMIN_ROLE, msg.sender);\n    }\n\n    function setMinterAuthorization(address _minter, bool status) external onlyOwners {\n        if (status == true) {\n            grantRole(MINTERS, _minter);\n        } else {\n            revokeRole(MINTERS, _minter);\n        }\n    }\n\n    function getMinterAuthorization(address _minter) external view returns (bool) {\n        return hasRole(MINTERS, _minter);\n    }\n\n    function getTokenByOwner(address _owner) external view returns (uint256[] memory) {\n        uint256[] memory result = new uint256[](ownerTokenCount[_owner]);\n        uint256 counter = 0;\n        for (uint256 i = 0; i < tokenArray.length; i++) {\n            if (tokenToOwner[i] == _owner) {\n                result[counter] = i;\n                counter++;\n            }\n        }\n        return result;\n    }\n\n    function newToken(\n        string calldata _company,\n        string calldata _purpose,\n        uint256 tokens\n    ) external onlyMinters {\n        uint256 idStart = tokenArray.length;\n        for (uint256 i = 0; i < tokens; i++) {\n            tokenArray.push(Token(_company, _purpose));\n            uint256 id = tokenArray.length - 1;\n            tokenToOwner[id] = msg.sender;\n            ownerTokenCount[msg.sender]++;\n        }\n        emit MintToken(idStart, idStart + tokens - 1, _company, _purpose);\n    }\n\n    function setCompany(string calldata _company, uint256 _tokenId) external ownsToken(_tokenId) {\n        tokenArray[_tokenId].company = _company;\n    }\n\n    function setPurpose(string calldata _purpose, uint256 _tokenId) external ownsToken(_tokenId) {\n        tokenArray[_tokenId].purpose = _purpose;\n    }\n}\n",
  "sourcePath": "/Users/rahulprabhu/Documents/GitHub/maticDeploy/contracts/tokenFactory.sol",
  "compiler": {
    "name": "solc",
    "version": "0.6.6+commit.6c089d02.Emscripten.clang"
  },
  "schemaVersion": "3.2.1",
  "updatedAt": "2020-07-06T08:02:07.710Z",
  "devdoc": {
    "methods": {
      "getRoleAdmin(bytes32)": {
        "details": "Returns the admin role that controls `role`. See {grantRole} and {revokeRole}.     * To change a role's admin, use {_setRoleAdmin}."
      },
      "getRoleMember(bytes32,uint256)": {
        "details": "Returns one of the accounts that have `role`. `index` must be a value between 0 and {getRoleMemberCount}, non-inclusive.     * Role bearers are not sorted in any particular way, and their ordering may change at any point.     * WARNING: When using {getRoleMember} and {getRoleMemberCount}, make sure you perform all queries on the same block. See the following https://forum.openzeppelin.com/t/iterating-over-elements-on-enumerableset-in-openzeppelin-contracts/2296[forum post] for more information."
      },
      "getRoleMemberCount(bytes32)": {
        "details": "Returns the number of accounts that have `role`. Can be used together with {getRoleMember} to enumerate all bearers of a role."
      },
      "grantRole(bytes32,address)": {
        "details": "Grants `role` to `account`.     * If `account` had not been already granted `role`, emits a {RoleGranted} event.     * Requirements:     * - the caller must have ``role``'s admin role."
      },
      "hasRole(bytes32,address)": {
        "details": "Returns `true` if `account` has been granted `role`."
      },
      "renounceRole(bytes32,address)": {
        "details": "Revokes `role` from the calling account.     * Roles are often managed via {grantRole} and {revokeRole}: this function's purpose is to provide a mechanism for accounts to lose their privileges if they are compromised (such as when a trusted device is misplaced).     * If the calling account had been granted `role`, emits a {RoleRevoked} event.     * Requirements:     * - the caller must be `account`."
      },
      "revokeRole(bytes32,address)": {
        "details": "Revokes `role` from `account`.     * If `account` had been granted `role`, emits a {RoleRevoked} event.     * Requirements:     * - the caller must have ``role``'s admin role."
      }
    }
  },
  "userdoc": {
    "methods": {}
  }
}